{
  "_format": "hh-sol-artifact-1",
  "contractName": "Vault2",
  "sourceName": "contracts/Vault2.sol",
  "abi": [
    {
      "inputs": [],
      "stateMutability": "nonpayable",
      "type": "constructor"
    },
    {
      "anonymous": false,
      "inputs": [
        {
          "indexed": true,
          "internalType": "address",
          "name": "owner",
          "type": "address"
        },
        {
          "indexed": true,
          "internalType": "address",
          "name": "spender",
          "type": "address"
        },
        {
          "indexed": false,
          "internalType": "uint256",
          "name": "value",
          "type": "uint256"
        }
      ],
      "name": "Approval",
      "type": "event"
    },
    {
      "anonymous": false,
      "inputs": [
        {
          "indexed": true,
          "internalType": "address",
          "name": "from",
          "type": "address"
        },
        {
          "indexed": true,
          "internalType": "address",
          "name": "to",
          "type": "address"
        },
        {
          "indexed": false,
          "internalType": "uint256",
          "name": "value",
          "type": "uint256"
        }
      ],
      "name": "Transfer",
      "type": "event"
    },
    {
      "inputs": [
        {
          "internalType": "address",
          "name": "owner",
          "type": "address"
        },
        {
          "internalType": "address",
          "name": "spender",
          "type": "address"
        }
      ],
      "name": "allowance",
      "outputs": [
        {
          "internalType": "uint256",
          "name": "",
          "type": "uint256"
        }
      ],
      "stateMutability": "view",
      "type": "function"
    },
    {
      "inputs": [
        {
          "internalType": "address",
          "name": "spender",
          "type": "address"
        },
        {
          "internalType": "uint256",
          "name": "amount",
          "type": "uint256"
        }
      ],
      "name": "approve",
      "outputs": [
        {
          "internalType": "bool",
          "name": "",
          "type": "bool"
        }
      ],
      "stateMutability": "nonpayable",
      "type": "function"
    },
    {
      "inputs": [
        {
          "internalType": "address",
          "name": "account",
          "type": "address"
        }
      ],
      "name": "balanceOf",
      "outputs": [
        {
          "internalType": "uint256",
          "name": "",
          "type": "uint256"
        }
      ],
      "stateMutability": "view",
      "type": "function"
    },
    {
      "inputs": [
        {
          "internalType": "uint256",
          "name": "_amount",
          "type": "uint256"
        }
      ],
      "name": "burn",
      "outputs": [],
      "stateMutability": "nonpayable",
      "type": "function"
    },
    {
      "inputs": [],
      "name": "decimals",
      "outputs": [
        {
          "internalType": "uint8",
          "name": "",
          "type": "uint8"
        }
      ],
      "stateMutability": "view",
      "type": "function"
    },
    {
      "inputs": [
        {
          "internalType": "address",
          "name": "spender",
          "type": "address"
        },
        {
          "internalType": "uint256",
          "name": "subtractedValue",
          "type": "uint256"
        }
      ],
      "name": "decreaseAllowance",
      "outputs": [
        {
          "internalType": "bool",
          "name": "",
          "type": "bool"
        }
      ],
      "stateMutability": "nonpayable",
      "type": "function"
    },
    {
      "inputs": [
        {
          "internalType": "address",
          "name": "spender",
          "type": "address"
        },
        {
          "internalType": "uint256",
          "name": "addedValue",
          "type": "uint256"
        }
      ],
      "name": "increaseAllowance",
      "outputs": [
        {
          "internalType": "bool",
          "name": "",
          "type": "bool"
        }
      ],
      "stateMutability": "nonpayable",
      "type": "function"
    },
    {
      "inputs": [],
      "name": "mint",
      "outputs": [],
      "stateMutability": "payable",
      "type": "function"
    },
    {
      "inputs": [],
      "name": "name",
      "outputs": [
        {
          "internalType": "string",
          "name": "",
          "type": "string"
        }
      ],
      "stateMutability": "view",
      "type": "function"
    },
    {
      "inputs": [],
      "name": "symbol",
      "outputs": [
        {
          "internalType": "string",
          "name": "",
          "type": "string"
        }
      ],
      "stateMutability": "view",
      "type": "function"
    },
    {
      "inputs": [],
      "name": "totalSupply",
      "outputs": [
        {
          "internalType": "uint256",
          "name": "",
          "type": "uint256"
        }
      ],
      "stateMutability": "view",
      "type": "function"
    },
    {
      "inputs": [
        {
          "internalType": "address",
          "name": "to",
          "type": "address"
        },
        {
          "internalType": "uint256",
          "name": "amount",
          "type": "uint256"
        }
      ],
      "name": "transfer",
      "outputs": [
        {
          "internalType": "bool",
          "name": "",
          "type": "bool"
        }
      ],
      "stateMutability": "nonpayable",
      "type": "function"
    },
    {
      "inputs": [
        {
          "internalType": "address",
          "name": "from",
          "type": "address"
        },
        {
          "internalType": "address",
          "name": "to",
          "type": "address"
        },
        {
          "internalType": "uint256",
          "name": "amount",
          "type": "uint256"
        }
      ],
      "name": "transferFrom",
      "outputs": [
        {
          "internalType": "bool",
          "name": "",
          "type": "bool"
        }
      ],
      "stateMutability": "nonpayable",
      "type": "function"
    }
  ],
  "bytecode": "0x60806040523480156200001157600080fd5b506040518060400160405280600581526020017f5641554c540000000000000000000000000000000000000000000000000000008152506040518060400160405280600381526020017f564c540000000000000000000000000000000000000000000000000000000000815250816003908051906020019062000096929190620000b8565b508060049080519060200190620000af929190620000b8565b505050620001cd565b828054620000c69062000168565b90600052602060002090601f016020900481019282620000ea576000855562000136565b82601f106200010557805160ff191683800117855562000136565b8280016001018555821562000136579182015b828111156200013557825182559160200191906001019062000118565b5b50905062000145919062000149565b5090565b5b80821115620001645760008160009055506001016200014a565b5090565b600060028204905060018216806200018157607f821691505b602082108114156200019857620001976200019e565b5b50919050565b7f4e487b7100000000000000000000000000000000000000000000000000000000600052602260045260246000fd5b61196980620001dd6000396000f3fe6080604052600436106100c25760003560e01c8063395093511161007f57806395d89b411161005957806395d89b411461026f578063a457c2d71461029a578063a9059cbb146102d7578063dd62ed3e14610314576100c2565b806339509351146101cc57806342966c681461020957806370a0823114610232576100c2565b806306fdde03146100c7578063095ea7b3146100f25780631249c58b1461012f57806318160ddd1461013957806323b872dd14610164578063313ce567146101a1575b600080fd5b3480156100d357600080fd5b506100dc610351565b6040516100e9919061128b565b60405180910390f35b3480156100fe57600080fd5b5061011960048036038101906101149190611024565b6103e3565b6040516101269190611270565b60405180910390f35b610137610406565b005b34801561014557600080fd5b5061014e610412565b60405161015b919061140d565b60405180910390f35b34801561017057600080fd5b5061018b60048036038101906101869190610fd5565b61041c565b6040516101989190611270565b60405180910390f35b3480156101ad57600080fd5b506101b661044b565b6040516101c39190611428565b60405180910390f35b3480156101d857600080fd5b506101f360048036038101906101ee9190611024565b610454565b6040516102009190611270565b60405180910390f35b34801561021557600080fd5b50610230600480360381019061022b9190611060565b61048b565b005b34801561023e57600080fd5b5061025960048036038101906102549190610f70565b61052a565b604051610266919061140d565b60405180910390f35b34801561027b57600080fd5b50610284610572565b604051610291919061128b565b60405180910390f35b3480156102a657600080fd5b506102c160048036038101906102bc9190611024565b610604565b6040516102ce9190611270565b60405180910390f35b3480156102e357600080fd5b506102fe60048036038101906102f99190611024565b61067b565b60405161030b9190611270565b60405180910390f35b34801561032057600080fd5b5061033b60048036038101906103369190610f99565b61069e565b604051610348919061140d565b60405180910390f35b60606003805461036090611571565b80601f016020809104026020016040519081016040528092919081815260200182805461038c90611571565b80156103d95780601f106103ae576101008083540402835291602001916103d9565b820191906000526020600020905b8154815290600101906020018083116103bc57829003601f168201915b5050505050905090565b6000806103ee610725565b90506103fb81858561072d565b600191505092915050565b61041033346108f8565b565b6000600254905090565b600080610427610725565b9050610434858285610a58565b61043f858585610ae4565b60019150509392505050565b60006012905090565b60008061045f610725565b9050610480818585610471858961069e565b61047b919061145f565b61072d565b600191505092915050565b806104953361052a565b10156104d6576040517f08c379a00000000000000000000000000000000000000000000000000000000081526004016104cd906113ad565b60405180910390fd5b6104e03382610d65565b3373ffffffffffffffffffffffffffffffffffffffff166108fc829081150290604051600060405180830381858888f19350505050158015610526573d6000803e3d6000fd5b5050565b60008060008373ffffffffffffffffffffffffffffffffffffffff1673ffffffffffffffffffffffffffffffffffffffff168152602001908152602001600020549050919050565b60606004805461058190611571565b80601f01602080910402602001604051908101604052809291908181526020018280546105ad90611571565b80156105fa5780601f106105cf576101008083540402835291602001916105fa565b820191906000526020600020905b8154815290600101906020018083116105dd57829003601f168201915b5050505050905090565b60008061060f610725565b9050600061061d828661069e565b905083811015610662576040517f08c379a0000000000000000000000000000000000000000000000000000000008152600401610659906113cd565b60405180910390fd5b61066f828686840361072d565b60019250505092915050565b600080610686610725565b9050610693818585610ae4565b600191505092915050565b6000600160008473ffffffffffffffffffffffffffffffffffffffff1673ffffffffffffffffffffffffffffffffffffffff16815260200190815260200160002060008373ffffffffffffffffffffffffffffffffffffffff1673ffffffffffffffffffffffffffffffffffffffff16815260200190815260200160002054905092915050565b600033905090565b600073ffffffffffffffffffffffffffffffffffffffff168373ffffffffffffffffffffffffffffffffffffffff16141561079d576040517f08c379a00000000000000000000000000000000000000000000000000000000081526004016107949061138d565b60405180910390fd5b600073ffffffffffffffffffffffffffffffffffffffff168273ffffffffffffffffffffffffffffffffffffffff16141561080d576040517f08c379a0000000000000000000000000000000000000000000000000000000008152600401610804906112ed565b60405180910390fd5b80600160008573ffffffffffffffffffffffffffffffffffffffff1673ffffffffffffffffffffffffffffffffffffffff16815260200190815260200160002060008473ffffffffffffffffffffffffffffffffffffffff1673ffffffffffffffffffffffffffffffffffffffff168152602001908152602001600020819055508173ffffffffffffffffffffffffffffffffffffffff168373ffffffffffffffffffffffffffffffffffffffff167f8c5be1e5ebec7d5bd14f71427d1e84f3dd0314c0f7b2291e5b200ac8c7c3b925836040516108eb919061140d565b60405180910390a3505050565b600073ffffffffffffffffffffffffffffffffffffffff168273ffffffffffffffffffffffffffffffffffffffff161415610968576040517f08c379a000000000000000000000000000000000000000000000000000000000815260040161095f906113ed565b60405180910390fd5b61097460008383610f3c565b8060026000828254610986919061145f565b92505081905550806000808473ffffffffffffffffffffffffffffffffffffffff1673ffffffffffffffffffffffffffffffffffffffff16815260200190815260200160002060008282546109db919061145f565b925050819055508173ffffffffffffffffffffffffffffffffffffffff16600073ffffffffffffffffffffffffffffffffffffffff167fddf252ad1be2c89b69c2b068fc378daa952ba7f163c4a11628f55a4df523b3ef83604051610a40919061140d565b60405180910390a3610a5460008383610f41565b5050565b6000610a64848461069e565b90507fffffffffffffffffffffffffffffffffffffffffffffffffffffffffffffffff8114610ade5781811015610ad0576040517f08c379a0000000000000000000000000000000000000000000000000000000008152600401610ac79061130d565b60405180910390fd5b610add848484840361072d565b5b50505050565b600073ffffffffffffffffffffffffffffffffffffffff168373ffffffffffffffffffffffffffffffffffffffff161415610b54576040517f08c379a0000000000000000000000000000000000000000000000000000000008152600401610b4b9061136d565b60405180910390fd5b600073ffffffffffffffffffffffffffffffffffffffff168273ffffffffffffffffffffffffffffffffffffffff161415610bc4576040517f08c379a0000000000000000000000000000000000000000000000000000000008152600401610bbb906112ad565b60405180910390fd5b610bcf838383610f3c565b60008060008573ffffffffffffffffffffffffffffffffffffffff1673ffffffffffffffffffffffffffffffffffffffff16815260200190815260200160002054905081811015610c55576040517f08c379a0000000000000000000000000000000000000000000000000000000008152600401610c4c9061132d565b60405180910390fd5b8181036000808673ffffffffffffffffffffffffffffffffffffffff1673ffffffffffffffffffffffffffffffffffffffff16815260200190815260200160002081905550816000808573ffffffffffffffffffffffffffffffffffffffff1673ffffffffffffffffffffffffffffffffffffffff1681526020019081526020016000206000828254610ce8919061145f565b925050819055508273ffffffffffffffffffffffffffffffffffffffff168473ffffffffffffffffffffffffffffffffffffffff167fddf252ad1be2c89b69c2b068fc378daa952ba7f163c4a11628f55a4df523b3ef84604051610d4c919061140d565b60405180910390a3610d5f848484610f41565b50505050565b600073ffffffffffffffffffffffffffffffffffffffff168273ffffffffffffffffffffffffffffffffffffffff161415610dd5576040517f08c379a0000000000000000000000000000000000000000000000000000000008152600401610dcc9061134d565b60405180910390fd5b610de182600083610f3c565b60008060008473ffffffffffffffffffffffffffffffffffffffff1673ffffffffffffffffffffffffffffffffffffffff16815260200190815260200160002054905081811015610e67576040517f08c379a0000000000000000000000000000000000000000000000000000000008152600401610e5e906112cd565b60405180910390fd5b8181036000808573ffffffffffffffffffffffffffffffffffffffff1673ffffffffffffffffffffffffffffffffffffffff168152602001908152602001600020819055508160026000828254610ebe91906114b5565b92505081905550600073ffffffffffffffffffffffffffffffffffffffff168373ffffffffffffffffffffffffffffffffffffffff167fddf252ad1be2c89b69c2b068fc378daa952ba7f163c4a11628f55a4df523b3ef84604051610f23919061140d565b60405180910390a3610f3783600084610f41565b505050565b505050565b505050565b600081359050610f5581611905565b92915050565b600081359050610f6a8161191c565b92915050565b600060208284031215610f8257600080fd5b6000610f9084828501610f46565b91505092915050565b60008060408385031215610fac57600080fd5b6000610fba85828601610f46565b9250506020610fcb85828601610f46565b9150509250929050565b600080600060608486031215610fea57600080fd5b6000610ff886828701610f46565b935050602061100986828701610f46565b925050604061101a86828701610f5b565b9150509250925092565b6000806040838503121561103757600080fd5b600061104585828601610f46565b925050602061105685828601610f5b565b9150509250929050565b60006020828403121561107257600080fd5b600061108084828501610f5b565b91505092915050565b611092816114fb565b82525050565b60006110a382611443565b6110ad818561144e565b93506110bd81856020860161153e565b6110c681611601565b840191505092915050565b60006110de60238361144e565b91506110e982611612565b604082019050919050565b600061110160228361144e565b915061110c82611661565b604082019050919050565b600061112460228361144e565b915061112f826116b0565b604082019050919050565b6000611147601d8361144e565b9150611152826116ff565b602082019050919050565b600061116a60268361144e565b915061117582611728565b604082019050919050565b600061118d60218361144e565b915061119882611777565b604082019050919050565b60006111b060258361144e565b91506111bb826117c6565b604082019050919050565b60006111d360248361144e565b91506111de82611815565b604082019050919050565b60006111f660118361144e565b915061120182611864565b602082019050919050565b600061121960258361144e565b91506112248261188d565b604082019050919050565b600061123c601f8361144e565b9150611247826118dc565b602082019050919050565b61125b81611527565b82525050565b61126a81611531565b82525050565b60006020820190506112856000830184611089565b92915050565b600060208201905081810360008301526112a58184611098565b905092915050565b600060208201905081810360008301526112c6816110d1565b9050919050565b600060208201905081810360008301526112e6816110f4565b9050919050565b6000602082019050818103600083015261130681611117565b9050919050565b600060208201905081810360008301526113268161113a565b9050919050565b600060208201905081810360008301526113468161115d565b9050919050565b6000602082019050818103600083015261136681611180565b9050919050565b60006020820190508181036000830152611386816111a3565b9050919050565b600060208201905081810360008301526113a6816111c6565b9050919050565b600060208201905081810360008301526113c6816111e9565b9050919050565b600060208201905081810360008301526113e68161120c565b9050919050565b600060208201905081810360008301526114068161122f565b9050919050565b60006020820190506114226000830184611252565b92915050565b600060208201905061143d6000830184611261565b92915050565b600081519050919050565b600082825260208201905092915050565b600061146a82611527565b915061147583611527565b9250827fffffffffffffffffffffffffffffffffffffffffffffffffffffffffffffffff038211156114aa576114a96115a3565b5b828201905092915050565b60006114c082611527565b91506114cb83611527565b9250828210156114de576114dd6115a3565b5b828203905092915050565b60006114f482611507565b9050919050565b60008115159050919050565b600073ffffffffffffffffffffffffffffffffffffffff82169050919050565b6000819050919050565b600060ff82169050919050565b60005b8381101561155c578082015181840152602081019050611541565b8381111561156b576000848401525b50505050565b6000600282049050600182168061158957607f821691505b6020821081141561159d5761159c6115d2565b5b50919050565b7f4e487b7100000000000000000000000000000000000000000000000000000000600052601160045260246000fd5b7f4e487b7100000000000000000000000000000000000000000000000000000000600052602260045260246000fd5b6000601f19601f8301169050919050565b7f45524332303a207472616e7366657220746f20746865207a65726f206164647260008201527f6573730000000000000000000000000000000000000000000000000000000000602082015250565b7f45524332303a206275726e20616d6f756e7420657863656564732062616c616e60008201527f6365000000000000000000000000000000000000000000000000000000000000602082015250565b7f45524332303a20617070726f766520746f20746865207a65726f20616464726560008201527f7373000000000000000000000000000000000000000000000000000000000000602082015250565b7f45524332303a20696e73756666696369656e7420616c6c6f77616e6365000000600082015250565b7f45524332303a207472616e7366657220616d6f756e742065786365656473206260008201527f616c616e63650000000000000000000000000000000000000000000000000000602082015250565b7f45524332303a206275726e2066726f6d20746865207a65726f2061646472657360008201527f7300000000000000000000000000000000000000000000000000000000000000602082015250565b7f45524332303a207472616e736665722066726f6d20746865207a65726f20616460008201527f6472657373000000000000000000000000000000000000000000000000000000602082015250565b7f45524332303a20617070726f76652066726f6d20746865207a65726f2061646460008201527f7265737300000000000000000000000000000000000000000000000000000000602082015250565b7f4e6f7420656e6f75676820746f6b656e73000000000000000000000000000000600082015250565b7f45524332303a2064656372656173656420616c6c6f77616e63652062656c6f7760008201527f207a65726f000000000000000000000000000000000000000000000000000000602082015250565b7f45524332303a206d696e7420746f20746865207a65726f206164647265737300600082015250565b61190e816114e9565b811461191957600080fd5b50565b61192581611527565b811461193057600080fd5b5056fea26469706673582212202e2f4859c3e38a69be1c482425f4e5ee3b503577853dd9544d695b23b2e182c464736f6c63430008040033",
  "linkReferences": {},
  "deployedLinkReferences": {}
}