{
  "_format": "hh-sol-artifact-1",
  "contractName": "Vault1",
  "sourceName": "contracts/Vault1.sol",
  "abi": [
    {
      "inputs": [],
      "stateMutability": "nonpayable",
      "type": "constructor"
    },
    {
      "anonymous": false,
      "inputs": [
        {
          "indexed": true,
          "internalType": "address",
          "name": "_from",
          "type": "address"
        },
        {
          "indexed": true,
          "internalType": "contract IERC20",
          "name": "_token",
          "type": "address"
        },
        {
          "indexed": false,
          "internalType": "uint256",
          "name": "_amount",
          "type": "uint256"
        }
      ],
      "name": "Deposit",
      "type": "event"
    },
    {
      "anonymous": false,
      "inputs": [
        {
          "indexed": true,
          "internalType": "address",
          "name": "_to",
          "type": "address"
        },
        {
          "indexed": true,
          "internalType": "contract IERC20",
          "name": "_token",
          "type": "address"
        },
        {
          "indexed": false,
          "internalType": "uint256",
          "name": "_amount",
          "type": "uint256"
        }
      ],
      "name": "Withdraw",
      "type": "event"
    },
    {
      "inputs": [
        {
          "internalType": "uint256",
          "name": "_amount",
          "type": "uint256"
        },
        {
          "internalType": "contract IERC20",
          "name": "_token",
          "type": "address"
        }
      ],
      "name": "deposit",
      "outputs": [],
      "stateMutability": "nonpayable",
      "type": "function"
    },
    {
      "inputs": [
        {
          "internalType": "address",
          "name": "",
          "type": "address"
        },
        {
          "internalType": "contract IERC20",
          "name": "",
          "type": "address"
        }
      ],
      "name": "erc20Balances",
      "outputs": [
        {
          "internalType": "uint256",
          "name": "",
          "type": "uint256"
        }
      ],
      "stateMutability": "view",
      "type": "function"
    },
    {
      "inputs": [
        {
          "internalType": "address",
          "name": "_account",
          "type": "address"
        },
        {
          "internalType": "contract IERC20",
          "name": "_token",
          "type": "address"
        }
      ],
      "name": "tokenBalanceOf",
      "outputs": [
        {
          "internalType": "uint256",
          "name": "",
          "type": "uint256"
        }
      ],
      "stateMutability": "view",
      "type": "function"
    },
    {
      "inputs": [
        {
          "internalType": "uint256",
          "name": "_amount",
          "type": "uint256"
        },
        {
          "internalType": "contract IERC20",
          "name": "_token",
          "type": "address"
        }
      ],
      "name": "withdraw",
      "outputs": [],
      "stateMutability": "nonpayable",
      "type": "function"
    }
  ],
  "bytecode": "0x608060405234801561001057600080fd5b50336000806101000a81548173ffffffffffffffffffffffffffffffffffffffff021916908373ffffffffffffffffffffffffffffffffffffffff160217905550610ae0806100606000396000f3fe608060405234801561001057600080fd5b506004361061004a5760003560e01c80622c6c411461004f578062f714ce1461007f5780631bea80061461009b5780636e553f65146100cb575b600080fd5b61006960048036038101906100649190610686565b6100e7565b604051610076919061086e565b60405180910390f35b610099600480360381019061009491906106eb565b61010c565b005b6100b560048036038101906100b09190610686565b6103dc565b6040516100c2919061086e565b60405180910390f35b6100e560048036038101906100e091906106eb565b610463565b005b6001602052816000526040600020602052806000526040600020600091509150505481565b6000821161014f576040517f08c379a00000000000000000000000000000000000000000000000000000000081526004016101469061082e565b60405180910390fd5b81600160003373ffffffffffffffffffffffffffffffffffffffff1673ffffffffffffffffffffffffffffffffffffffff16815260200190815260200160002060008373ffffffffffffffffffffffffffffffffffffffff1673ffffffffffffffffffffffffffffffffffffffff16815260200190815260200160002054101561020e576040517f08c379a00000000000000000000000000000000000000000000000000000000081526004016102059061080e565b60405180910390fd5b81600160003373ffffffffffffffffffffffffffffffffffffffff1673ffffffffffffffffffffffffffffffffffffffff16815260200190815260200160002060008373ffffffffffffffffffffffffffffffffffffffff1673ffffffffffffffffffffffffffffffffffffffff168152602001908152602001600020600082825461029a91906108f0565b9250508190555060008173ffffffffffffffffffffffffffffffffffffffff1663a9059cbb33856040518363ffffffff1660e01b81526004016102de9291906107e5565b602060405180830381600087803b1580156102f857600080fd5b505af115801561030c573d6000803e3d6000fd5b505050506040513d601f19601f8201168201806040525081019061033091906106c2565b905080610372576040517f08c379a00000000000000000000000000000000000000000000000000000000081526004016103699061084e565b60405180910390fd5b8173ffffffffffffffffffffffffffffffffffffffff163373ffffffffffffffffffffffffffffffffffffffff167f9b1bfa7fa9ee420a16e124f794c35ac9f90472acc99140eb2f6447c714cad8eb856040516103cf919061086e565b60405180910390a3505050565b6000600160008473ffffffffffffffffffffffffffffffffffffffff1673ffffffffffffffffffffffffffffffffffffffff16815260200190815260200160002060008373ffffffffffffffffffffffffffffffffffffffff1673ffffffffffffffffffffffffffffffffffffffff16815260200190815260200160002054905092915050565b600082116104a6576040517f08c379a000000000000000000000000000000000000000000000000000000000815260040161049d9061082e565b60405180910390fd5b81600160003373ffffffffffffffffffffffffffffffffffffffff1673ffffffffffffffffffffffffffffffffffffffff16815260200190815260200160002060008373ffffffffffffffffffffffffffffffffffffffff1673ffffffffffffffffffffffffffffffffffffffff1681526020019081526020016000206000828254610532919061089a565b925050819055508073ffffffffffffffffffffffffffffffffffffffff166323b872dd3330856040518463ffffffff1660e01b8152600401610576939291906107ae565b602060405180830381600087803b15801561059057600080fd5b505af11580156105a4573d6000803e3d6000fd5b505050506040513d601f19601f820116820180604052508101906105c891906106c2565b508073ffffffffffffffffffffffffffffffffffffffff163373ffffffffffffffffffffffffffffffffffffffff167f5548c837ab068cf56a2c2479df0882a4922fd203edb7517321831d95078c5f6284604051610626919061086e565b60405180910390a35050565b60008135905061064181610a4e565b92915050565b60008151905061065681610a65565b92915050565b60008135905061066b81610a7c565b92915050565b60008135905061068081610a93565b92915050565b6000806040838503121561069957600080fd5b60006106a785828601610632565b92505060206106b88582860161065c565b9150509250929050565b6000602082840312156106d457600080fd5b60006106e284828501610647565b91505092915050565b600080604083850312156106fe57600080fd5b600061070c85828601610671565b925050602061071d8582860161065c565b9150509250929050565b61073081610924565b82525050565b6000610743602a83610889565b915061074e826109ad565b604082019050919050565b6000610766601683610889565b9150610771826109fc565b602082019050919050565b6000610789601083610889565b915061079482610a25565b602082019050919050565b6107a881610974565b82525050565b60006060820190506107c36000830186610727565b6107d06020830185610727565b6107dd604083018461079f565b949350505050565b60006040820190506107fa6000830185610727565b610807602083018461079f565b9392505050565b6000602082019050818103600083015261082781610736565b9050919050565b6000602082019050818103600083015261084781610759565b9050919050565b600060208201905081810360008301526108678161077c565b9050919050565b6000602082019050610883600083018461079f565b92915050565b600082825260208201905092915050565b60006108a582610974565b91506108b083610974565b9250827fffffffffffffffffffffffffffffffffffffffffffffffffffffffffffffffff038211156108e5576108e461097e565b5b828201905092915050565b60006108fb82610974565b915061090683610974565b9250828210156109195761091861097e565b5b828203905092915050565b600061092f82610954565b9050919050565b60008115159050919050565b600061094d82610924565b9050919050565b600073ffffffffffffffffffffffffffffffffffffffff82169050919050565b6000819050919050565b7f4e487b7100000000000000000000000000000000000000000000000000000000600052601160045260246000fd5b7f4163636f756e7420686173206e6f7420656e6f75676820746f6b656e7320696e60008201527f20746865207661756c7400000000000000000000000000000000000000000000602082015250565b7f416d6f756e742063616e206e6f74206265207a65726f00000000000000000000600082015250565b7f5472616e73666572206661696c65642e00000000000000000000000000000000600082015250565b610a5781610924565b8114610a6257600080fd5b50565b610a6e81610936565b8114610a7957600080fd5b50565b610a8581610942565b8114610a9057600080fd5b50565b610a9c81610974565b8114610aa757600080fd5b5056fea26469706673582212209eca96f2d4009d83324641ea9a9ca8ce70ce222efc8110426578a00c0a9c834f64736f6c63430008040033",
  "linkReferences": {},
  "deployedLinkReferences": {}
}